:100000000C945D000C9485000C9485000C94850084
:100010000C9485000C9485000C9485000C9485004C
:100020000C9485000C9485000C9485000C9485003C
:100030000C9485000C9485000C9485000C9485002C
:100040000C944B050C9485000C9485000C94850051
:100050000C9485000C9485000C9485000C9485000C
:100060000C9495050C948500000000080002010026
:100070000003040700000000000000000000000072
:10008000250028002B0000000000240027002A0083
:10009000040404040404040402020202020203032E
:1000A0000303030301020408102040800102040836
:1000B0001020010204081020B40611241FBECFEF47
:1000C000D8E0DEBFCDBF11E0A0E0B1E0ECEEFAE198
:1000D00002C005900D92AC36B107D9F722E0ACE62C
:1000E000B1E001C01D92A135B207E1F710E0CDE506
:1000F000D0E004C02197FE010E946E0DCC35D107DF
:10010000C9F70E94D4060C94740D0C94000090E082
:10011000FC01EC55FF4F249180579F4FFC018491C7
:10012000882399F090E0880F991FFC01EA57FF4F50
:10013000A591B491FC01E458FF4F859194918FB73C
:10014000F894EC91E22BEC938FBF089590E0FC01C2
:10015000E859FF4F2491FC01EC55FF4F3491FC010D
:10016000E057FF4FE491EE23C9F0222339F023300A
:1001700001F1A8F4213019F1223029F1F0E0EE0F5D
:10018000FF1FE458FF4FA591B4918FB7F894EC91FD
:10019000611126C030953E233C938FBF08952730D0
:1001A000A9F02830C9F0243049F7809180008F7D74
:1001B00003C0809180008F7780938000DFCF84B56B
:1001C0008F7784BDDBCF84B58F7DFBCF8091B0006E
:1001D0008F778093B000D2CF8091B0008F7DF9CF20
:1001E0003E2BDACF3FB7F8948091350290913602DA
:1001F000A0913702B091380226B5A89B05C02F3FC9
:1002000019F00196A11DB11D3FBFBA2FA92F982F3C
:100210008827BC01CD01620F711D811D911D42E037
:10022000660F771F881F991F4A95D1F708958F92FF
:100230009F92AF92BF92CF92DF92EF92FF924B01CB
:100240005C010E94F2006B017C010E94F2006C19BB
:100250007D098E099F09683E734081059105A8F3C9
:1002600021E0821A9108A108B10888EEC80E83E047
:10027000D81EE11CF11C81149104A104B10429F7DA
:10028000FF90EF90DF90CF90BF90AF909F908F90B6
:10029000089508950895AF92BF92CF92DF92EF92A2
:1002A000FF920F931F93CF93DF936C017B018B0120
:1002B000040F151FEB015E01AE18BF08C017D10770
:1002C00059F06991D601ED91FC910190F081E02DFA
:1002D000C6010995892B79F7C501DF91CF911F914F
:1002E0000F91FF90EF90DF90CF90BF90AF90089567
:1002F0002091D401260F3327331F21323105ECF42E
:100300002091F801FC0190E080E0243069F082E067
:100310000895A091D4012191AC014C545E4FA40FDB
:10032000B52FB11D2C930196861798F38091D401B7
:10033000680F6093D40180E0089581E008951092E1
:10034000F80181E08093FA011092F90161E082E105
:100350000E94A60061E083E10E94A600E9EBF0E0C4
:1003600080818E7F808380818D7F808388E48093ED
:10037000B80085E48093BC000895CF93DF9391E0AB
:100380009093B3018823B9F0C091B800D091BA001E
:100390008091BC008A7B8093BC0060E082E10E9477
:1003A000A60060E083E10E94A6000E949F01D09316
:1003B000BA00C093B800DF91CF9108950895E091FD
:1003C000250280912402E81730F4F0E0E257FE4F56
:1003D000808190E008958FEF9FEF0895909125021E
:1003E000809124022FEF3FEF981748F4E92FF0E0B7
:1003F000E257FE4F208130E09F5F90932502C901B4
:1004000008958091240290912502891B990B0895EB
:10041000CF92DF92EF92FF920F931F93CF93DF93D0
:100420007C01CB018A0120918D01222389F0EB010F
:100430006B01C40ED51ECC15DD0569F06991D7019D
:10044000ED91FC910190F081E02DC7010995F3CF6A
:10045000642F0E947801C801DF91CF911F910F9105
:10046000FF90EF90DF90CF900895CF93DF931F928E
:10047000CDB7DEB7698320918D012223F9F0209159
:100480002202203258F021E030E0FC013383228345
:1004900090E080E00F90DF91CF910895809123024A
:1004A000E82FF0E0E359FE4F998190838F5F8093AE
:1004B00023028093220281E090E0ECCF61E0CE0144
:1004C00001960E947801F7CFCF92DF92EF92FF92D0
:1004D0000F931F93CF93DF93FC01C48121E02093FE
:1004E0008D01C0936C011092230210922202838529
:1004F000682B89E392E00E943502D0912202D1322A
:1005000008F092C00E94F2006B017C018091F8011A
:10051000811165C082E08093F80181E08093FA0147
:100520008FEF8093F70110921C02D0931B02ADE66F
:10053000B1E0EBEFF1E080E0D81385C010921D022E
:1005400080911D02CC0FC82BC0931D028091F90130
:10055000813009F07CC01092F9010E94F2006B0119
:100560007C0180911D028093BB008091AF0190912E
:10057000B001A091B101B091B201892B8A2B8B2BD4
:1005800099F00E94F2000091AF011091B00120910A
:10059000B1013091B2016C197D098E099F090617CE
:1005A000170728073907E0F18091BC0083FDD9CFF8
:1005B00085EC8093BC000E94F2006B017C0180916D
:1005C000F801823009F445C08091F7018F3F61F155
:1005D0008091F701803241F18091F70125C080912F
:1005E000AF019091B001A091B101B091B201892BFE
:1005F0008A2B8B2B09F48ACF0E94F2000091AF0165
:100600001091B0012091B1013091B2016C197D09B6
:100610008E099F09061717072807390708F076CFB4
:100620008091AE010E94BD0110922302109222021D
:1006300010928D01DF91CF911F910F91FF90EF905C
:10064000DF90CF9008959D9191938F5F75CF85EE48
:10065000B0CF8091AF019091B001A091B101B09164
:10066000B201892B8A2B8B2B09F4A9CF0E94F200AF
:100670000091AF011091B0012091B1013091B20110
:100680006C197D098E099F09061717072807390776
:1006900008F095CFC5CF089590E080E0089560E020
:1006A00084E00E94A60060E085E00E94A60060E071
:1006B00086E00E94A60060E087E00E94A60060E05D
:1006C00088E00E94A60060E089E00E94A60060E049
:1006D0008AE00E94A60060E08BE00E94A60060E035
:1006E0008CE00E94A60060E08EE00E94A60060E020
:1006F0008FE00C94A600FC0101900020E9F73197EF
:10070000AF01481B590BBC0185E492E00C944B01EE
:100710008F929F92AF92BF920F931F93CF93DF93CD
:10072000CDB7DEB7A1970FB6F894DEBF0FBECDBF31
:1007300019A2423008F44AE08E010F5D1F4F842E4B
:10074000912CB12CA12CA50194010E944C0DE62FF7
:10075000B901CA01EA30F4F4E05DD801EE938D01ED
:10076000232B242B252B79F790E080E0109719F0AC
:10077000CD010E947B03A1960FB6F894DEBF0FBE99
:10078000CDBFDF91CF911F910F91BF90AF909F9000
:100790008F900895E95CE1CF0F931F93CF938C0165
:1007A000C62F0E9464026C2F6460C8010E9464021C
:1007B0006C2F6B7FC8010E94640283EC90E001976C
:1007C000F1F7CF911F910F9108950F931F93CF933E
:1007D000DF938C01D62FC42F607F642B0E94CC0343
:1007E00080E1D89FB00111246C2BC801DF91CF911B
:1007F0001F910F910C94CC03CF93DF93CDB7DEB74D
:1008000028970FB6F894DEBF0FBECDBF98E0E0E0AA
:10081000F1E0DE01119601900D929A95E1F7909129
:100820004D02961708F46FEF262F30E0220F331F8A
:1008300041E050E04C0F5D1F240F351FF90160812E
:10084000680F606840E085E492E028960FB6F8945F
:10085000DEBF0FBECDBFDF91CF910C94E50341E029
:100860000E94E50381E090E008954F925F926F92BD
:100870007F928F929F92AF92BF92CF92DF92EF9230
:10088000FF920F931F93CF936B017C01742EAC01E9
:100890009B010E94470D882399F086E291E0CF9159
:1008A0001F910F91FF90EF90DF90CF90BF90AF908E
:1008B0009F908F907F906F905F904F900C947B03F0
:1008C00046015701E894B7F82FEF3FEF4FE75FE796
:1008D000C501B4010E94470D81110DC02FEF3FEFFC
:1008E0004FE75FE7C501B4010E947D0B18161CF4A9
:1008F0008AE291E0D4CF2FEF3FEF4FE75FE4C701EB
:10090000B6010E94D50C18161CF48EE291E0C7CFF8
:100910002FEF3FEF4FE75FECC701B6010E947D0B61
:1009200087FDF3CF20E030E0A901C701B6010E94A6
:100930007D0B10E000E087FF0CC041E06DE285E434
:1009400092E00E94E503F7FAF094F7F8F09401E0E2
:1009500010E0C0E060E070E080E09FE37C1641F0D2
:1009600020E030E040E251E40E94820BCF5FF6CFFE
:10097000A70196010E94110B4B015C010E94F40B30
:100980002B013C014AE00E948803080F191FCC2369
:10099000C9F1C301B2010E94230C9B01AC01C50146
:1009A000B4010E94100B4B015C0141E06EE285E452
:1009B00092E00E94E5030F5F1F4FC15018F120E045
:1009C00030E040E251E4C501B4010E94DA0C2B0191
:1009D0003C010E94F40B4B01B12CA12C4AE0C50153
:1009E000B4010E948803080F191FC501B4010E94B9
:1009F000230C9B01AC01C301B2010E94100B4B01FF
:100A00005C01DBCFC801CF911F910F91FF90EF9058
:100A1000DF90CF90BF90AF909F908F907F906F901E
:100A20005F904F90089585ED8093BC008091AF0159
:100A30009091B001A091B101B091B2010796A11DB2
:100A4000B11D23E0B695A795979587952A95D1F77F
:100A50002091BC0024FD03C01092F801089540913C
:100A6000AF015091B0016091B1017091B201452B7D
:100A7000462B472B69F30097A105B10541F02AE207
:100A80002A95F1F700C00197A109B109E1CF809142
:100A9000AE010C94BD011F920F920FB60F9211245C
:100AA0002F933F938F939F93AF93BF938091310286
:100AB00090913202A0913302B09134023091300211
:100AC00023E0230F2D3758F50196A11DB11D20936A
:100AD00030028093310290933202A0933302B0939C
:100AE00034028091350290913602A0913702B09184
:100AF00038020196A11DB11D8093350290933602F4
:100B0000A0933702B0933802BF91AF919F918F911C
:100B10003F912F910F900FBE0F901F90189526E8D0
:100B2000230F0296A11DB11DD2CF1F920F920FB6B7
:100B30000F9211242F933F934F935F936F937F9363
:100B40008F939F93AF93BF93EF93FF938091B900DF
:100B5000887F803609F44AC0F0F5883209F4A7C0CE
:100B600018F5803109F49BC0B8F4882309F4F9C062
:100B7000883009F494C0FF91EF91BF91AF919F919C
:100B80008F917F916F915F914F913F912F910F9036
:100B90000FBE0F901F901895883109F488C08032DD
:100BA00051F78093F70114C0803409F49DC040F4DC
:100BB0008033B9F38833F9F68093F70185ECB0C040
:100BC000803509F485C0883509F496C0883499F6D3
:100BD0000E941305D0CF883909F48CC038F58837C6
:100BE00029F050F4883611F0803729F683E080939D
:100BF000F8011092F60157C0883809F47BC080399B
:100C000019F0803809F0B7CF8091F601803208F0F2
:100C100071C0E091F60181E08E0F8093F601809122
:100C2000BB00F0E0EA52FE4F80833DC0803B39F0CC
:100C3000E0F4803A09F479C0883A09F09CCF84E066
:100C40008093F8011092D5011092D401E091200216
:100C5000F091210209958091D40181110FC081E0AA
:100C60008093D4011092B40109C0803C09F4A6CF4E
:100C7000883C09F4A3CF883B09F07DCFE091D501F2
:100C800081E08E0F8093D501F0E0EC54FE4F80811F
:100C90008093BB009091D5018091D40129C08091AF
:100CA0001D028093BB0085EC8093BC0064CF9091C3
:100CB0001C0280911B02981758F5E0911C0281E0FC
:100CC0008E0F80931C02F0E0E550FE4F8081E9CF4B
:100CD000E0911C0281E08E0F80931C028091BB008A
:100CE000F0E0E550FE4F808390911C0280911B0242
:100CF0009817C8F285E8D8CFE0911C0281E08E0FEA
:100D000080931C028091BB00F0E0E550FE4F808391
:100D10008091FA0181115CCF81E08093F90184EA2E
:100D20008093BC001092F80126CF85EC8093BC0024
:100D30001092F8018091F601803230F4E091F601D2
:100D4000F0E0EA52FE4F10826091F60170E0E0910F
:100D50001E02F0911F0286ED91E009951092F601B6
:100D60000ACF1092F70134CFE9E3F2E01382128246
:100D700088EE93E0A0E0B0E084839583A683B783F8
:100D80008CE091E091838083E5E4F2E013821282AB
:100D90008EE191E09183808380E2848380E181878A
:100DA00082E0828713860895789484B5826084BD3A
:100DB00084B5816084BD85B5826085BD85B581605F
:100DC00085BD80916E00816080936E0010928100DD
:100DD0008091810082608093810080918100816098
:100DE0008093810080918000816080938000809159
:100DF000B10084608093B1008091B00081608093E5
:100E0000B00080917A00846080937A0080917A00AB
:100E1000826080937A0080917A00816080937A006A
:100E200080917A00806880937A001092C10084E0FB
:100E30000E94870085E00E94870086E00E9487006C
:100E400087E00E94870088E00E94870089E00E9476
:100E500087008AE00E9487008BE00E9487008CE078
:100E60000E9487008EE00E9487008FE00E9487002A
:100E70000E944F0310922502109224021092230226
:100E8000109222020E949F0189E491E09093210236
:100E9000809320028AE491E090931F0280931E02C7
:100EA00010924A0280914F02823018F098E090939D
:100EB0004A0280934D0262E370E080E090E00E947D
:100EC00017016091500285E492E00E94640268EE8E
:100ED00073E080E090E00E94170160E385E492E017
:100EE0000E94CC03CBE4D6E4CE010197F1F760E396
:100EF00085E492E00E94CC032197F1F760E385E45A
:100F000092E00E94CC0383E592E00197F1F760E262
:100F100085E492E00E94CC0360914A02606240E066
:100F200085E492E00E94E50384E080934B0240E078
:100F30006CE085E492E00E94E50340E061E085E436
:100F400092E00E94E503CBE3DFE1CE010197F1F7E8
:100F500082E080934C0240E066E085E492E00E94EB
:100F6000E50340E062E085E492E00E94E503CE0103
:100F70000197F1F788E08093500260E085E492E009
:100F80000E94640260E081E00E94FC0382E391E041
:100F90000E947B0361E080E00E94FC0380E491E01A
:100FA0000E947B0368EE73E080E090E00E941701EE
:100FB00040E061E085E492E00E94E5032197F1F7CB
:100FC00046E0242E312C93E0C92ED12C22E0A22E13
:100FD000B12C88248394912CE12C82E0F82E00E03F
:100FE00010E0D0E0C0E082E480937C0080917A0041
:100FF000806480937A0080917A0086FDFCCF6091B6
:1010000078007091790090E080E00E94230C2B0121
:101010003C019B01AC01B8018D2F9C2F0E947D0BE0
:1010200087FF03C08201D62DC72D91E0E91AF10890
:10103000D1F62AE038E240E25CE3B8018D2F9C2F24
:101040000E94DA0C20E030E040EA50E40E94100BED
:101050002FEB31E64CED52E40E94DA0C23EF34E042
:1010600045E35FE30E94DA0C2B013C0120E030E015
:101070004BE153E40E947D0B87FF48C01092280289
:101080001092290210922A0210922B020E944F0302
:1010900040922C0250922D0260922E0270922F02EA
:1010A00060E080E00E94FC0381E591E00E947B0308
:1010B00060912C0270912D0280912E0290912F024E
:1010C00041E00E9435048DE591E00E947B0361E0E0
:1010D00080E00E94FC038FE591E00E947B03609119
:1010E00028027091290280912A0290912B0242E0FD
:1010F0000E9435048DE591E00E947B0380E090E042
:10110000892B09F469CF0E9400005DCF20E030E018
:1011100047E553E4C301B2010E94D50C87FD23C00B
:1011200020E030E046E653E4C301B2010E947D0BAB
:1011300087FF19C08091260290912702019799F0AC
:10114000409228025092290260922A0270922B0249
:1011500090922702809226020E944F0361E084E071
:101160000E94A60095CF20E030E04BE153E4C3019C
:10117000B2010E94D50C87FD2FC020E030E045E28F
:1011800053E4C301B2010E947D0B87FF25C080910B
:101190002602909127020297F9F020E030E046E124
:1011A00054E4C301B2010E94DA0C20E030E04CEDBF
:1011B00053E40E94820B609328027093290280936B
:1011C0002A0290932B02B0922702A09226020E943C
:1011D0004F0361E085E0C4CF20E030E045E253E416
:1011E000C301B2010E94D50C87FD2FC020E030E082
:1011F0004FE253E4C301B2010E947D0B87FF25C07B
:1012000080912602909127020397F9F020E030E0C8
:1012100041E154E4C301B2010E94DA0C20E030E065
:101220004CED53E40E94820B6093280270932902D4
:1012300080932A0290932B02D0922702C09226021A
:101240000E944F0361E086E08BCF20E030E04FE268
:1012500053E4C301B2010E94D50C87FD31C020E0E8
:1012600030E049E353E4C301B2010E947D0B87FFE4
:1012700027C08091260290912702049709F120E06F
:1012800030E047E054E4C301B2010E94DA0C20E0F0
:1012900030E04CED53E40E94820B6093280270937F
:1012A000290280932A0290932B0284E090E090938D
:1012B0002702809326020E944F0361E087E050CF0F
:1012C00020E030E049E353E4C301B2010E94D50CB1
:1012D00087FD31C020E030E043E453E4C301B201B4
:1012E0000E947D0B87FF27C08091260290912702E4
:1012F000059709F120E030E04FEF53E4C301B2015C
:101300000E94DA0C20E030E04CED53E40E94820BA6
:10131000609328027093290280932A0290932B02F3
:1013200085E090E090932702809326020E944F036D
:1013300061E088E015CF20E030E043E453E4C301EE
:10134000B2010E94D50C87FD2FC020E030E042E5BD
:1013500053E4C301B2010E947D0B87FF25C0809139
:101360002602909127020697F9F020E030E040EF46
:1013700053E4C301B2010E94DA0C20E030E04CEDEE
:1013800053E40E94820B6093280270932902809399
:101390002A0290932B0230922702209226020E946A
:1013A0004F0361E089E0DCCE20E030E042E553E429
:1013B000C301B2010E94D50C87FD31C020E030E0AE
:1013C00047E553E4C301B2010E947D0B87FF27C0AC
:1013D0008091260290912702079709F120E030E0E2
:1013E00041EE53E4C301B2010E94DA0C20E030E088
:1013F0004CED53E40E94820B609328027093290203
:1014000080932A0290932B0287E090E0909327022A
:10141000809326020E944F0361E08AE0A1CE20E083
:1014200030E046E653E4C301B2010E94D50C87FDCB
:1014300031C020E030E040E753E4C301B2010E9434
:101440007D0B87FF27C08091260290912702089785
:1014500009F120E030E042ED53E4C301B2010E9403
:10146000DA0C20E030E04CED53E40E94820B6093F4
:1014700028027093290280932A0290932B0288E01D
:1014800090E090932702809326020E944F0361E030
:101490008BE066CE20E030E040E753E4C301B201C8
:1014A0000E94D50C87FD31C020E030E042E853E4D3
:1014B000C301B2010E947D0B87FF27C080912602E5
:1014C00090912702099709F120E030E043EC53E4C2
:1014D000C301B2010E94DA0C20E030E04CED53E48D
:1014E0000E94820B609328027093290280932A0243
:1014F00090932B0289E090E090932702809326023C
:101500000E944F0361E08CE02BCE20E030E042E807
:1015100053E4C301B2010E94D50C87FD31C020E025
:1015200030E04CE853E4C301B2010E947D0B87FF19
:1015300027C080912602909127020A9709F120E0A6
:1015400030E044EB53E4C301B2010E94DA0C20E026
:1015500030E04CED53E40E94820B609328027093BC
:10156000290280932A0290932B028AE090E09093C4
:101570002702809326020E944F0361E08EE0F0CDA7
:1015800020E030E04CE853E4C301B2010E94D50CE6
:1015900087FD31C020E030E04BE953E4C301B201E4
:1015A0000E947D0B87FF27C0809126029091270221
:1015B0000B9709F120E030E045EA53E4C301B201A2
:1015C0000E94DA0C20E030E04CED53E40E94820BE4
:1015D000609328027093290280932A0290932B0231
:1015E0008BE090E090932702809326020E944F03A5
:1015F00061E08FE0B5CD20E030E04BE953E4C3017A
:10160000B2010E94D50C87FD43CD0E944F0310927A
:1016100028021092290210922A0210922B0238CD31
:101620005058BB27AA270E94280B0C949B0C0E94A1
:101630008D0C38F00E94940C20F039F49F3F19F47F
:1016400026F40C948A0C0EF4E095E7FB0C94840CC1
:10165000E92F0E94AC0C58F3BA176207730784078E
:10166000950720F079F4A6F50C94CE0C0EF4E095D5
:101670000B2EBA2FA02D0B01B90190010C01CA014C
:10168000A0011124FF27591B99F0593F50F4503EF7
:1016900068F11A16F040A22F232F342F4427585FE9
:1016A000F3CF469537952795A795F0405395C9F701
:1016B0007EF41F16BA0B620B730B840BBAF09150B9
:1016C000A1F0FF0FBB1F661F771F881FC2F70EC058
:1016D000BA0F621F731F841F48F48795779567952B
:1016E000B795F7959E3F08F0B0CF9395880F08F017
:1016F0009927EE0F9795879508950E94600C08F43E
:1017000081E008950E94960B0C949B0C0E94940C0F
:1017100058F00E948D0C40F029F45F3F29F00C94A2
:10172000840C51110C94CF0C0C948A0C0E94AC0CBC
:1017300068F39923B1F3552391F3951B550BBB2700
:10174000AA2762177307840738F09F5F5F4F220F45
:10175000331F441FAA1FA9F335D00E2E3AF0E0E83C
:1017600032D091505040E695001CCAF72BD0FE2F86
:1017700029D0660F771F881FBB1F2617370748071A
:10178000AB07B0E809F0BB0B802DBF01FF279358D2
:101790005F4F3AF09E3F510578F00C94840C0C9406
:1017A000CF0C5F3FE4F3983ED4F386957795679529
:1017B000B795F7959F5FC9F7880F911D9695879507
:1017C00097F90895E1E0660F771F881FBB1F621726
:1017D00073078407BA0720F0621B730B840BBA0BE4
:1017E000EE1F88F7E09508950E94B40C88F09F578B
:1017F00098F0B92F9927B751B0F0E1F0660F771F35
:10180000881F991F1AF0BA95C9F714C0B13091F02A
:101810000E94CE0CB1E008950C94CE0C672F782F67
:101820008827B85F39F0B93FCCF3869577956795EF
:10183000B395D9F73EF490958095709561957F4F5B
:101840008F4F9F4F0895E89409C097FB3EF4909501
:101850008095709561957F4F8F4F9F4F9923A9F089
:10186000F92F96E9BB279395F69587957795679518
:10187000B795F111F8CFFAF4BB0F11F460FF1BC05C
:101880006F5F7F4F8F4F9F4F16C0882311F096E9EF
:1018900011C0772321F09EE8872F762F05C066239D
:1018A00071F096E8862F70E060E02AF09A95660F56
:1018B000771F881FDAF7880F9695879597F908950F
:1018C000990F0008550FAA0BE0E8FEEF1616170651
:1018D000E807F907C0F012161306E407F50798F0B9
:1018E000621B730B840B950B39F40A2661F0232BD2
:1018F000242B252B21F408950A2609F4A140A6954E
:101900008FEF811D811D089597F99F6780E870E032
:1019100060E008959FEF80EC089500240A94161665
:10192000170618060906089500240A9412161306CD
:10193000140605060895092E0394000C11F488235B
:1019400052F0BB0F40F4BF2B11F460FF04C06F5F77
:101950007F4F8F4F9F4F089557FD9058440F551F4D
:1019600059F05F3F71F04795880F97FB991F61F021
:101970009F3F79F087950895121613061406551F98
:10198000F2CF4695F1DF08C0161617061806991F04
:10199000F1CF86957105610508940895E894BB27F9
:1019A00066277727CB0197F908950E94600C08F409
:1019B0008FEF08950E94ED0C0C949B0C0E948D0CEF
:1019C00038F00E94940C20F0952311F00C94840CB4
:1019D0000C948A0C11240C94CF0C0E94AC0C70F364
:1019E000959FC1F3950F50E0551F629FF001729FC4
:1019F000BB27F00DB11D639FAA27F00DB11DAA1FD3
:101A0000649F6627B00DA11D661F829F2227B00D1F
:101A1000A11D621F739FB00DA11D621F839FA00DAA
:101A2000611D221F749F3327A00D611D231F849FFA
:101A3000600D211D822F762F6A2F11249F57504051
:101A40009AF0F1F088234AF0EE0FFF1FBB1F661FCC
:101A5000771F881F91505040A9F79E3F510580F095
:101A60000C94840C0C94CF0C5F3FE4F3983ED4F3B9
:101A7000869577956795B795F795E7959F5FC1F739
:101A8000FE2B880F911D9695879597F908950E94D2
:101A9000600C880B990B0895A1E21A2EAA1BBB1BA0
:101AA000FD010DC0AA1FBB1FEE1FFF1FA217B3072A
:101AB000E407F50720F0A21BB30BE40BF50B661F40
:101AC000771F881F991F1A9469F760957095809504
:101AD00090959B01AC01BD01CF010895EE0FFF1F52
:0C1AE0000590F491E02D0994F894FFCFDC
:101AEC000000400014005400000000003502080201
:101AFC004C03DE010102EE01DF01000000002F04A7
:101B0C004B014C034B036E616E00696E66006F7681
:101B1C0066004261746368203036362045454500C6
:101B2C005465616D3A5368696E696E672053756EC2
:101B3C0000496E20566F6C746167653A0056004F11
:0C1B4C00757420566F6C746167653A0078
:00000001FF
